:100000005AC074C073C072C071C070C06FC06EC07F
:100010006DC06CC06BC06AC069C068C067C070C486
:1000200076C48FC498C4B5C472C4B9C494C4BFC4E0
:1000300092C443C5C6C401C5202F55736572732F82
:100040006D65682F5F61767250726F6A6563747355
:100050002F7461626C6574426C7565746F6F74683F
:1000600065722F382D67697474696679696E6720C7
:1000700000204D6F6E204465632032332030383AC3
:1000800030303A3434205053542032303133200051
:10009000205744545F4449533D5452554520004530
:1000A000464765666700202B2D2E303132333435BC
:1000B00036373839680011241FBECFE5D1E0DEBFE6
:1000C000CDBF10E0A0E6B0E0E4EEFEE002C0059097
:1000D0000D92AC3AB107D9F711E0ACEAB0E001C03B
:1000E0001D92A031B107E1F7CFD1FAC689CF82B70F
:1000F0008093B0001092AC001092AD001092AE0050
:100100001092AF00089522B73091B000822F90E096
:10011000831B9109231710F480509F4F2093B00048
:100120009C01442737FD4095542F8091AC0090915D
:10013000AD00A091AE00B091AF00820F931FA41F3D
:10014000B51F8093AC009093AD00A093AE00B09328
:10015000AF0008956091AC007091AD008091AE0049
:100160009091AF000895FC019091AC008081292FFF
:10017000281B261710F480E00895690F621B608326
:1001800081E00895AF92BF92CF92DF92EF92FF92FB
:100190000F931F93FC017A018B012091AC003091E9
:1001A000AD004091AE005091AF0080819181A2815D
:1001B000B38159016A01A81AB90ACA0ADB0AAE1446
:1001C000BF04C006D10610F480E00FC0BA01A90137
:1001D0004E0D5F1D601F711F4A195B096C097D0977
:1001E000408351836283738381E01F910F91FF905D
:1001F000EF90DF90CF90BF90AF900895843010F0D3
:1002000081E008956F3010F082E008958295807F3C
:10021000862B50E0342F3295330F330F307C94E02F
:10022000440F551F9A95E1F7407360E070E021E0BC
:10023000922F906F9823E92FF0E0EF70F0703097D5
:10024000F1F0923079F0933018F4913029F406C02F
:10025000913169F0923179F083E008959AB59F73F6
:10026000932B03C09AB59F7C942B9ABD08C090B77E
:100270009F73932B03C090B79F7C942B90BF220F4A
:100280006F5F7F4F6430710599F680E0089582308A
:1002900028F5663081F0673028F4662351F063302A
:1002A000E9F405C0683049F06A30C1F408C092E052
:1002B00007C091E005C093E003C094E001C095E061
:1002C0009770813029F083B7887F892B83BF04C062
:1002D00080B7887F892B80BF80E0089581E00895F2
:1002E0006430B8F48823A9F4862F817019F08AB598
:1002F000816002C08AB58E7F8ABD8AB5627019F0AE
:100300008AB5826002C08AB58D7F8ABD8AB580E0D9
:10031000089581E008950F931F93182F062F642FDF
:10032000DFDF882311F0806105C0812F602FAFDFF0
:10033000811180621F910F910895843010F081E047
:100340000895623010F082E00895442311F041E0F6
:10035000F8948295807F860F8130A1F0813030F053
:100360008031E1F0813131F183E00895442319F0C7
:1003700089B7806102C089B78F7E89BF89B788B786
:10038000806123C0442319F089B7886002C089B70F
:10039000877F89BF89B788B7886017C0442319F061
:1003A00089B7806402C089B78F7B89BF89B788B756
:1003B00080640BC0442319F089B7806202C089B7FA
:1003C0008F7D89BF89B788B7806288BF442311F4C5
:1003D00080E00895789480E00895F894882321F0CF
:1003E000813041F081E0089589B7826089BF88B784
:1003F000826005C089B7846089BF88B7846088BF80
:10040000789480E00895FC015483438362831082D2
:10041000118280E00895FC01262F808190E06281A6
:10042000019670E068D4442329F401C00000918152
:100430008917E1F39181891711F481E00895908182
:10044000A381B481A90FB11D2C93808380E008950E
:10045000FC0190818181981719F42FEF3FEF0EC0B6
:100460008181A381B481A80FB11D2C9181818F5FFF
:1004700081838181628133D4918330E0C901089501
:10048000FC018181808308952F923F924F925F9269
:100490006F927F928F929F92AF92BF92CF92DF9294
:1004A000EF92FF920F931F93CF93DF93BC9ABB9869
:1004B000C39AB89ABA98C29A80E063E040E02BDF12
:1004C00016DE8BEE90E064E14CEF50E09CDF86EEB0
:1004D00090E064E142ED50E096DF3CDE7B018C0170
:1004E00001C011DE37DE6E197F09800B910B603C75
:1004F00026EC72072DE2820720E0920790F388E64F
:1005000090E0A0E0B0E08093F0009093F100A09321
:10051000F200B093F3008093F4009093F500A09361
:10052000F600B093F7008093C3009093C400A093AB
:10053000C500B093C600C49A28B38093C7009093B7
:10054000C800A093C900B093CA00C09A88B3B99AF2
:1005500011E03AE0E32E22E0F22E0BE0C3E8D0E017
:100560009CE9A92E90E0B92E8FE8C82E80E0D82E05
:10057000BEE64B2EB0E05B2EA0E62A2EA0E03A2E7F
:1005800098B388B38270809582709D7F892B88BBD9
:10059000BADD8091CF00882389F48091FA00882306
:1005A000C9F18091BF008093CB001092FA001093A4
:1005B000CF00D0DD6093C100C49822C081EC90E0F0
:1005C0006091C300D0DD882329F18091CF00982F5E
:1005D0009150983080F48F5F8093CF008091CB0052
:1005E000982F917011F0C49A01C0C49898B3869561
:1005F0008093CB000FC0893029F4E092CF00C49AD9
:1006000088B308C08A3019F41092CF0003C08F5FFE
:100610008093CF008091D000882389F48091FB00E3
:100620008823C9F18091C0008093CC001092FB0018
:100630001093D0008FDD6093C200C09822C082EC7E
:1006400090E06091C7008FDD882329F18091D00070
:10065000982F9150983080F48F5F8093D0008091D4
:10066000CC00982F917011F0C09A01C0C09898B337
:1006700086958093CC000FC0893029F4E092D00099
:10068000C09A88B308C08A3019F41092D00003C011
:100690008F5F8093D0008091F800882311F586B396
:1006A000887009F06DC01093F80054DD2091F000BF
:1006B0003091F1004091F2005091F300569547952A
:1006C00037952795620F731F841F951F6093B300A2
:1006D0007093B4008093B5009093B6001092BB0065
:1006E0004FC038DD2091B3003091B4004091B50087
:1006F0005091B600621773078407950708F440C04D
:100700008091F0009091F100A091F200B091F3007F
:10071000820F931FA41FB51F8093B3009093B40062
:10072000A093B500B093B6009091F800913031F4E9
:1007300086B3887019F5F092F80022C0892F825094
:10074000883088F486B38695869586958795882720
:1007500087952091BB002695822B8093BB009F5FDD
:100760009093F8000DC09A3059F486B3887031F038
:100770008091BB008093BD001093CD001092F800D3
:100780008091F900882311F586B3847009F06CC05C
:100790001093F900DFDC2091F4003091F5004091D6
:1007A000F6005091F7005695479537952795620FBB
:1007B000731F841F951F6093B7007093B8008093D8
:1007C000B9009093BA001092BC004EC0C3DC2091D7
:1007D000B7003091B8004091B9005091BA0062174B
:1007E00073078407950708F43FC08091F400909147
:1007F000F500A091F600B091F700820F931FA41F9F
:10080000B51F8093B7009093B800A093B900B09340
:10081000BA009091F900913031F486B3847011F5EB
:10082000F092F90021C0892F8250883080F486B37D
:10083000869586958795882787952091BC00269573
:10084000822B8093BC009F5F9093F9000DC09A307B
:1008500059F486B3847031F08091BC008093BE005F
:100860001093CE001092F9008091CD00882321F4DE
:1008700088248A94982C05C01092CD008090BD00E9
:1008800099248091CE00882321F466246A94762CE2
:1008900005C01092CE006090BE0077248091B20017
:1008A000E82FF0E0E358FF4F9081992329F410924C
:1008B000B2001092D10019C02FEF82162FEF9206CE
:1008C000A1F020917D0030E08216930619F4109378
:1008D000B2000BC0292F30E08216930621F48F5FFF
:1008E0008093B20002C01092B2008091D100E82F34
:1008F000F0E0ED30F10508F043CEE15FFF4F0994E1
:1009000030927C0020927B001093D10039CE9091E0
:10091000FA00992309F034CEA0917B00B0917C00BD
:10092000FD0191911093FA009093BF00F0937C0029
:10093000E0937B0011969C911197992309F020CEAA
:1009400015C0D093AA00C093A9001092B10083E013
:100950008093D10015CE9091B100E091A900F09163
:10096000AA00E90FF11D2081222311F48F5FF0CF3F
:100970008FEF88168FEF980609F402CE30E08216CA
:10098000930621F49F5F9093B100FACD1092B100CD
:10099000F7CD50927C0040927B0025E00FC0D092B2
:1009A000AA00C092A9001092B10087E0D1CFB09206
:1009B000AA00A092A9001092B10029E02093D100D2
:1009C000DFCD8FEF88168FEF980629F08BEE90E041
:1009D000682D41E020DD2FEF62162FEF720629F01F
:1009E00086EE90E0662D41E016DD8DE088169104DC
:1009F00041F4D093AA00C093A9001092B1002CE05A
:100A0000DDCF8091FB00882349F48BEE90E020DD60
:100A100097FD04C01093FB008093C0008091FA0002
:100A2000882309F0ADCD86EE90E012DD97FDA8CDCC
:100A30001093FA008093BF00A3CD8FEF68168FEF5D
:100A4000780629F086EE90E0662D41E0E4DC8091A6
:100A5000B100E091A900F091AA00E80FF11D80819A
:100A6000882349F41092D1008BEE90E009DD86EEE8
:100A700090E006DD85CD2FEF82162FEF920609F468
:100A80007FCD8BEE90E0682D41E0C5DC8DE08816CF
:100A9000910411F41092B1008091B100E091A9008D
:100AA000F091AA00E80FF11D208130E08216930634
:100AB00021F48F5F8093B10063CD0093D10060CDAE
:100AC000ABE0B0E0E5E6F5E02DC16C014B017A0149
:100AD000FC0117821682838181FD08C02FEF3FEF52
:100AE000FAC022E030E0E20EF31E04C05E0108947A
:100AF000A11CB11CF6017380F40173FC859173FE97
:100B000081914F01882309F4E3C0853251F473FCCD
:100B1000059173FE01914F01053211F010E01AC0EA
:100B200085E290E029C0002309F4D2C086EA90E073
:100B3000602F70E03ED1009739F4033211F4106158
:100B400003C00C3661F41068F40173FC059173FE68
:100B500001914F0117FFE7CF002309F4B9C08FE9D6
:100B600090E0602F70E025D1009749F024E030E05C
:100B7000E20EF31E8FE390E0B60126D1BBCF033621
:100B800029F0033771F00335E1F40AC087010E5FE5
:100B90001F4FF70180819181B60116D17801AACF4C
:100BA0001160F7016080718003C090E0B6010CD144
:100BB000F30110FD859110FF81913F018823A9F772
:100BC00090CF043611F0093629F517FF08C0F70158
:100BD000608171818281938124E030E00AC0F70155
:100BE00020813181B901882777FD8095982F22E0F7
:100BF00030E0E20EF31E1F7E97FF08C090958095AF
:100C0000709561957F4F8F4F9F4F1064A5012AE02B
:100C100030E033C00037A9F0013730F40835B1F0C7
:100C20000F3609F055C006C0053739F0083709F00E
:100C30004FC008C028E030E00CC01F7E2AE030E042
:100C400008C01061146220E130E003C0146020E1AC
:100C500032E017FF08C0F7016081718182819381C2
:100C600044E050E007C0F7016081718180E090E0CE
:100C700042E050E0E40EF51EA501D2D0082F0A197B
:100C8000612E772416FF04C08DE290E0B6019CD05F
:100C900064FE13C0FE01E00FF11D8081803369F016
:100CA00080E390E0B60190D062FE07C0C30180727D
:100CB0009070885A9F4FB60187D00150F501E00F20
:100CC000F11D808190E0B6017FD00023B1F712CFF3
:100CD000F60126813781C9012B96EEE03FC0991BB2
:100CE00079E004C0991F961708F0961B881F7A9523
:100CF000C9F78095089597FB092E07260AD077FD3E
:100D000004D043D006D000201AF4709561957F4F2F
:100D10000895F6F7909581959F4F08952F923F92F1
:100D20004F925F926F927F928F929F92AF92BF92FB
:100D3000CF92DF92EF92FF920F931F93CF93DF93A7
:100D4000CDB7DEB7CA1BDB0B0FB6F894DEBF0FBE04
:100D5000CDBF09942A88398848885F846E847D8451
:100D60008C849B84AA84B984C884DF80EE80FD8053
:100D70000C811B81AA81B981CE0FD11D0FB6F894C9
:100D8000DEBF0FBECDBFED010895AA1BBB1B51E115
:100D900007C0AA1FBB1FA617B70710F0A61BB70BEB
:100DA000881F991F5A95A9F780959095BC01CD0190
:100DB0000895FC010590061621F00020D9F7C00126
:100DC00008953197CF0108950F931F93CF93DF9329
:100DD0008C01EB018B8181FF1BC082FF0DC02E8136
:100DE0003F818C819D812817390764F4E881F9815E
:100DF0000193F983E88306C0E885F985802F09957A
:100E0000009731F48E819F8101969F838E8302C06B
:100E10000FEF1FEFC801DF91CF911F910F91089540
:100E2000FA01AA27283061F1203191F1E8946F93FB
:100E30006E7F6E5F7F4F8F4F9F4FAF4FB1E040D0BF
:100E4000B4E03ED0670F781F891F9A1FA11D680F5D
:100E5000791F8A1F911DA11D6A0F711D811D911D92
:100E6000A11D22D009F468943F91062E000C301980
:100E7000000C000C3019305D3193CEF6CF0108958F
:100E8000462F4770405D4193B3E00FD0C9F7F6CFCE
:100E9000462F4F70405D4A3318F0495D31FD405296
:100EA000419302D0A9F7EACFB4E0A695979587952C
:100EB00077956795BA95C9F700976105710508950B
:100EC0009B01AC010A2E06945795479537952795B7
:100ED000BA95C9F7620F731F841F951FA01D08954F
:040EE000F894FFCFB4
:100EE4000D0A2B5354574D4F443D300D0A000D0A43
:100EF4002B494E513D310D0A0000007900455252F4
:100F04004F52000A2B425453544154453A31002B5A
:100F1400425453544154453A320D0A002B4254531F
:0C0F2400544154453A340D0A0079000095
:00000001FF
